{
  "contractName": "CropListing",
  "abi": [
    {
      "anonymous": false,
      "inputs": [
        {
          "indexed": false,
          "internalType": "string",
          "name": "listingTitle",
          "type": "string"
        },
        {
          "indexed": false,
          "internalType": "string",
          "name": "originalPrice",
          "type": "string"
        },
        {
          "indexed": false,
          "internalType": "string",
          "name": "category",
          "type": "string"
        },
        {
          "indexed": false,
          "internalType": "string",
          "name": "listingDescription",
          "type": "string"
        },
        {
          "indexed": true,
          "internalType": "address",
          "name": "owner",
          "type": "address"
        }
      ],
      "name": "CropAdded",
      "type": "event"
    },
    {
      "inputs": [
        {
          "internalType": "uint256",
          "name": "",
          "type": "uint256"
        }
      ],
      "name": "crops",
      "outputs": [
        {
          "internalType": "string",
          "name": "listingTitle",
          "type": "string"
        },
        {
          "internalType": "string",
          "name": "originalPrice",
          "type": "string"
        },
        {
          "internalType": "string",
          "name": "category",
          "type": "string"
        },
        {
          "internalType": "string",
          "name": "listingDescription",
          "type": "string"
        },
        {
          "internalType": "address",
          "name": "owner",
          "type": "address"
        }
      ],
      "stateMutability": "view",
      "type": "function",
      "constant": true
    },
    {
      "inputs": [
        {
          "internalType": "string",
          "name": "_listingTitle",
          "type": "string"
        },
        {
          "internalType": "string",
          "name": "_originalPrice",
          "type": "string"
        },
        {
          "internalType": "string",
          "name": "_category",
          "type": "string"
        },
        {
          "internalType": "string",
          "name": "_listingDescription",
          "type": "string"
        }
      ],
      "name": "addCrop",
      "outputs": [],
      "stateMutability": "nonpayable",
      "type": "function"
    },
    {
      "inputs": [],
      "name": "getAllCrops",
      "outputs": [
        {
          "components": [
            {
              "internalType": "string",
              "name": "listingTitle",
              "type": "string"
            },
            {
              "internalType": "string",
              "name": "originalPrice",
              "type": "string"
            },
            {
              "internalType": "string",
              "name": "category",
              "type": "string"
            },
            {
              "internalType": "string",
              "name": "listingDescription",
              "type": "string"
            },
            {
              "internalType": "address",
              "name": "owner",
              "type": "address"
            }
          ],
          "internalType": "struct CropListing.Crop[]",
          "name": "",
          "type": "tuple[]"
        }
      ],
      "stateMutability": "view",
      "type": "function",
      "constant": true
    }
  ],
  "bytecode": "0x608060405234801561001057600080fd5b5061109a806100206000396000f3fe608060405234801561001057600080fd5b50600436106100415760003560e01c80631d48dc901461004657806355ecfe761461006457806370c9f1a514610080575b600080fd5b61004e6100b4565b60405161005b91906109b8565b60405180910390f35b61007e60048036038101906100799190610b23565b6103b1565b005b61009a60048036038101906100959190610c30565b610514565b6040516100ab959493929190610cb6565b60405180910390f35b60606000805480602002602001604051908101604052809291908181526020016000905b828210156103a857838290600052602060002090600502016040518060a001604052908160008201805461010b90610d54565b80601f016020809104026020016040519081016040528092919081815260200182805461013790610d54565b80156101845780601f1061015957610100808354040283529160200191610184565b820191906000526020600020905b81548152906001019060200180831161016757829003601f168201915b5050505050815260200160018201805461019d90610d54565b80601f01602080910402602001604051908101604052809291908181526020018280546101c990610d54565b80156102165780601f106101eb57610100808354040283529160200191610216565b820191906000526020600020905b8154815290600101906020018083116101f957829003601f168201915b5050505050815260200160028201805461022f90610d54565b80601f016020809104026020016040519081016040528092919081815260200182805461025b90610d54565b80156102a85780601f1061027d576101008083540402835291602001916102a8565b820191906000526020600020905b81548152906001019060200180831161028b57829003601f168201915b505050505081526020016003820180546102c190610d54565b80601f01602080910402602001604051908101604052809291908181526020018280546102ed90610d54565b801561033a5780601f1061030f5761010080835404028352916020019161033a565b820191906000526020600020905b81548152906001019060200180831161031d57829003601f168201915b505050505081526020016004820160009054906101000a900473ffffffffffffffffffffffffffffffffffffffff1673ffffffffffffffffffffffffffffffffffffffff1673ffffffffffffffffffffffffffffffffffffffff1681525050815260200190600101906100d8565b50505050905090565b60006040518060a001604052808681526020018581526020018481526020018381526020013373ffffffffffffffffffffffffffffffffffffffff168152509080600181540180825580915050600190039060005260206000209060050201600090919091909150600082015181600001908161042e9190610f31565b5060208201518160010190816104449190610f31565b50604082015181600201908161045a9190610f31565b5060608201518160030190816104709190610f31565b5060808201518160040160006101000a81548173ffffffffffffffffffffffffffffffffffffffff021916908373ffffffffffffffffffffffffffffffffffffffff16021790555050503373ffffffffffffffffffffffffffffffffffffffff167fa08893e3fee3a724f89041a2fd6c3d08ac98fdda7a7ff3071d9f6da74e84a930858585856040516105069493929190611003565b60405180910390a250505050565b6000818154811061052457600080fd5b906000526020600020906005020160009150905080600001805461054790610d54565b80601f016020809104026020016040519081016040528092919081815260200182805461057390610d54565b80156105c05780601f10610595576101008083540402835291602001916105c0565b820191906000526020600020905b8154815290600101906020018083116105a357829003601f168201915b5050505050908060010180546105d590610d54565b80601f016020809104026020016040519081016040528092919081815260200182805461060190610d54565b801561064e5780601f106106235761010080835404028352916020019161064e565b820191906000526020600020905b81548152906001019060200180831161063157829003601f168201915b50505050509080600201805461066390610d54565b80601f016020809104026020016040519081016040528092919081815260200182805461068f90610d54565b80156106dc5780601f106106b1576101008083540402835291602001916106dc565b820191906000526020600020905b8154815290600101906020018083116106bf57829003601f168201915b5050505050908060030180546106f190610d54565b80601f016020809104026020016040519081016040528092919081815260200182805461071d90610d54565b801561076a5780601f1061073f5761010080835404028352916020019161076a565b820191906000526020600020905b81548152906001019060200180831161074d57829003601f168201915b5050505050908060040160009054906101000a900473ffffffffffffffffffffffffffffffffffffffff16905085565b600081519050919050565b600082825260208201905092915050565b6000819050602082019050919050565b600081519050919050565b600082825260208201905092915050565b60005b838110156108005780820151818401526020810190506107e5565b60008484015250505050565b6000601f19601f8301169050919050565b6000610828826107c6565b61083281856107d1565b93506108428185602086016107e2565b61084b8161080c565b840191505092915050565b600073ffffffffffffffffffffffffffffffffffffffff82169050919050565b600061088182610856565b9050919050565b61089181610876565b82525050565b600060a08301600083015184820360008601526108b4828261081d565b915050602083015184820360208601526108ce828261081d565b915050604083015184820360408601526108e8828261081d565b91505060608301518482036060860152610902828261081d565b91505060808301516109176080860182610888565b508091505092915050565b600061092e8383610897565b905092915050565b6000602082019050919050565b600061094e8261079a565b61095881856107a5565b93508360208202850161096a856107b6565b8060005b858110156109a657848403895281516109878582610922565b945061099283610936565b925060208a0199505060018101905061096e565b50829750879550505050505092915050565b600060208201905081810360008301526109d28184610943565b905092915050565b6000604051905090565b600080fd5b600080fd5b600080fd5b600080fd5b7f4e487b7100000000000000000000000000000000000000000000000000000000600052604160045260246000fd5b610a308261080c565b810181811067ffffffffffffffff82111715610a4f57610a4e6109f8565b5b80604052505050565b6000610a626109da565b9050610a6e8282610a27565b919050565b600067ffffffffffffffff821115610a8e57610a8d6109f8565b5b610a978261080c565b9050602081019050919050565b82818337600083830152505050565b6000610ac6610ac184610a73565b610a58565b905082815260208101848484011115610ae257610ae16109f3565b5b610aed848285610aa4565b509392505050565b600082601f830112610b0a57610b096109ee565b5b8135610b1a848260208601610ab3565b91505092915050565b60008060008060808587031215610b3d57610b3c6109e4565b5b600085013567ffffffffffffffff811115610b5b57610b5a6109e9565b5b610b6787828801610af5565b945050602085013567ffffffffffffffff811115610b8857610b876109e9565b5b610b9487828801610af5565b935050604085013567ffffffffffffffff811115610bb557610bb46109e9565b5b610bc187828801610af5565b925050606085013567ffffffffffffffff811115610be257610be16109e9565b5b610bee87828801610af5565b91505092959194509250565b6000819050919050565b610c0d81610bfa565b8114610c1857600080fd5b50565b600081359050610c2a81610c04565b92915050565b600060208284031215610c4657610c456109e4565b5b6000610c5484828501610c1b565b91505092915050565b600082825260208201905092915050565b6000610c79826107c6565b610c838185610c5d565b9350610c938185602086016107e2565b610c9c8161080c565b840191505092915050565b610cb081610876565b82525050565b600060a0820190508181036000830152610cd08188610c6e565b90508181036020830152610ce48187610c6e565b90508181036040830152610cf88186610c6e565b90508181036060830152610d0c8185610c6e565b9050610d1b6080830184610ca7565b9695505050505050565b7f4e487b7100000000000000000000000000000000000000000000000000000000600052602260045260246000fd5b60006002820490506001821680610d6c57607f821691505b602082108103610d7f57610d7e610d25565b5b50919050565b60008190508160005260206000209050919050565b60006020601f8301049050919050565b600082821b905092915050565b600060088302610de77fffffffffffffffffffffffffffffffffffffffffffffffffffffffffffffffff82610daa565b610df18683610daa565b95508019841693508086168417925050509392505050565b6000819050919050565b6000610e2e610e29610e2484610bfa565b610e09565b610bfa565b9050919050565b6000819050919050565b610e4883610e13565b610e5c610e5482610e35565b848454610db7565b825550505050565b600090565b610e71610e64565b610e7c818484610e3f565b505050565b5b81811015610ea057610e95600082610e69565b600181019050610e82565b5050565b601f821115610ee557610eb681610d85565b610ebf84610d9a565b81016020851015610ece578190505b610ee2610eda85610d9a565b830182610e81565b50505b505050565b600082821c905092915050565b6000610f0860001984600802610eea565b1980831691505092915050565b6000610f218383610ef7565b9150826002028217905092915050565b610f3a826107c6565b67ffffffffffffffff811115610f5357610f526109f8565b5b610f5d8254610d54565b610f68828285610ea4565b600060209050601f831160018114610f9b5760008415610f89578287015190505b610f938582610f15565b865550610ffb565b601f198416610fa986610d85565b60005b82811015610fd157848901518255600182019150602085019450602081019050610fac565b86831015610fee5784890151610fea601f891682610ef7565b8355505b6001600288020188555050505b505050505050565b6000608082019050818103600083015261101d8187610c6e565b905081810360208301526110318186610c6e565b905081810360408301526110458185610c6e565b905081810360608301526110598184610c6e565b90509594505050505056fea264697066735822122099be36f9ddab5ab8a6264b7106c8d53064c41b11c19704f64bdb5523550cda4f64736f6c63430008130033",
  "immutableReferences": {},
  "source": "// SPDX-License-Identifier: MIT\r\npragma solidity ^0.8.0;\r\n\r\ncontract CropListing {\r\n    struct Crop {\r\n        string listingTitle;\r\n        string originalPrice;\r\n        string category;\r\n        string listingDescription;\r\n        address owner;\r\n    }\r\n\r\n    Crop[] public crops;\r\n\r\n    event CropAdded(\r\n        string listingTitle,\r\n        string originalPrice,\r\n        string category,\r\n        string listingDescription,\r\n        address indexed owner\r\n    );\r\n\r\n    function addCrop(\r\n        string memory _listingTitle,\r\n        string memory _originalPrice,\r\n        string memory _category,\r\n        string memory _listingDescription\r\n    ) public {\r\n        crops.push(Crop({\r\n            listingTitle: _listingTitle,\r\n            originalPrice: _originalPrice,\r\n            category: _category,\r\n            listingDescription: _listingDescription,\r\n            owner: msg.sender\r\n        }));\r\n\r\n        emit CropAdded(_listingTitle, _originalPrice, _category, _listingDescription, msg.sender);\r\n    }\r\n\r\n    function getAllCrops() public view returns (Crop[] memory) {\r\n        return crops;\r\n    }\r\n}\r\n",
  "sourcePath": "C:\\Users\\MT\\Desktop\\FYP\\The Farmex\\blockchain\\contracts\\CropListing.sol",
  "compiler": {
    "name": "solc",
    "version": "0.8.19+commit.7dd6d404.Emscripten.clang"
  },
  "schemaVersion": "3.4.16",
  "updatedAt": "2025-04-19T06:05:45.591Z",
  "networkType": "ethereum",
  "devdoc": {
    "kind": "dev",
    "methods": {},
    "version": 1
  },
  "userdoc": {
    "kind": "user",
    "methods": {},
    "version": 1
  }
}